{
  "contractName": "SimpleWallet",
  "abi": [
    {
      "inputs": [],
      "stateMutability": "nonpayable",
      "type": "constructor"
    },
    {
      "inputs": [],
      "name": "owner",
      "outputs": [
        {
          "internalType": "address",
          "name": "",
          "type": "address"
        }
      ],
      "stateMutability": "view",
      "type": "function"
    },
    {
      "inputs": [],
      "name": "deposit",
      "outputs": [],
      "stateMutability": "payable",
      "type": "function"
    },
    {
      "inputs": [
        {
          "internalType": "uint256",
          "name": "amount",
          "type": "uint256"
        }
      ],
      "name": "withdraw",
      "outputs": [],
      "stateMutability": "nonpayable",
      "type": "function"
    }
  ],
  "bytecode": "0x608060405234801561000f575f80fd5b50335f806101000a81548173ffffffffffffffffffffffffffffffffffffffff021916908373ffffffffffffffffffffffffffffffffffffffff1602179055506103be8061005c5f395ff3fe608060405260043610610033575f3560e01c80632e1a7d4d146100375780638da5cb5b1461005f578063d0e30db014610089575b5f80fd5b348015610042575f80fd5b5061005d60048036038101906100589190610225565b610093565b005b34801561006a575f80fd5b506100736101c9565b604051610080919061028f565b60405180910390f35b6100916101ec565b005b5f8054906101000a900473ffffffffffffffffffffffffffffffffffffffff1673ffffffffffffffffffffffffffffffffffffffff163373ffffffffffffffffffffffffffffffffffffffff1614610120576040517f08c379a000000000000000000000000000000000000000000000000000000000815260040161011790610302565b60405180910390fd5b80471015610163576040517f08c379a000000000000000000000000000000000000000000000000000000000815260040161015a9061036a565b60405180910390fd5b5f8054906101000a900473ffffffffffffffffffffffffffffffffffffffff1673ffffffffffffffffffffffffffffffffffffffff166108fc8290811502906040515f60405180830381858888f193505050501580156101c5573d5f803e3d5ffd5b5050565b5f8054906101000a900473ffffffffffffffffffffffffffffffffffffffff1681565b565b5f80fd5b5f819050919050565b610204816101f2565b811461020e575f80fd5b50565b5f8135905061021f816101fb565b92915050565b5f6020828403121561023a576102396101ee565b5b5f61024784828501610211565b91505092915050565b5f73ffffffffffffffffffffffffffffffffffffffff82169050919050565b5f61027982610250565b9050919050565b6102898161026f565b82525050565b5f6020820190506102a25f830184610280565b92915050565b5f82825260208201905092915050565b7f4f6e6c7920746865206f776e65722063616e206578656375746520746869732e5f82015250565b5f6102ec6020836102a8565b91506102f7826102b8565b602082019050919050565b5f6020820190508181035f830152610319816102e0565b9050919050565b7f496e73756666696369656e742062616c616e63650000000000000000000000005f82015250565b5f6103546014836102a8565b915061035f82610320565b602082019050919050565b5f6020820190508181035f83015261038181610348565b905091905056fea26469706673582212205469aea78779d4fd820c3d2541c4cc78103862e46fadb12ca12ae9ccb2fb4d6964736f6c63430008150033",
  "immutableReferences": {},
  "source": "pragma solidity ^0.8.0;\r\n\r\ncontract SimpleWallet {\r\n    address public owner;\r\n\r\n    constructor() {\r\n        owner = msg.sender;\r\n    }\r\n\r\n    modifier onlyOwner() {\r\n        require(msg.sender == owner, \"Only the owner can execute this.\");\r\n        _;\r\n    }\r\n\r\n    function deposit() public payable {\r\n    }\r\n\r\n    function withdraw(uint256 amount) public onlyOwner {\r\n        require(address(this).balance >= amount, \"Insufficient balance\");\r\n        payable(owner).transfer(amount);\r\n    }\r\n}\r\n",
  "sourcePath": "C:\\Users\\wirel\\Downloads\\TokenWalletTracker\\tokenwallettracker\\contracts\\SimpleWallet.sol",
  "compiler": {
    "name": "solc",
    "version": "0.8.21+commit.d9974bed.Emscripten.clang"
  },
  "schemaVersion": "3.4.16",
  "updatedAt": "2023-09-08T06:24:17.797Z",
  "devdoc": {
    "kind": "dev",
    "methods": {},
    "version": 1
  },
  "userdoc": {
    "kind": "user",
    "methods": {},
    "version": 1
  }
}